{
  "contractName": "Congress",
  "abi": [
    {
      "constant": true,
      "inputs": [
        {
          "name": "",
          "type": "uint256"
        }
      ],
      "name": "proposals",
      "outputs": [
        {
          "name": "description",
          "type": "string"
        },
        {
          "name": "votingDeadline",
          "type": "uint256"
        },
        {
          "name": "executed",
          "type": "bool"
        },
        {
          "name": "proposalPassed",
          "type": "bool"
        },
        {
          "name": "numberOfVotes",
          "type": "uint256"
        },
        {
          "name": "currentResult",
          "type": "int256"
        },
        {
          "name": "proposalHash",
          "type": "bytes32"
        }
      ],
      "payable": false,
      "stateMutability": "view",
      "type": "function"
    },
    {
      "constant": false,
      "inputs": [
        {
          "name": "targetMember",
          "type": "address"
        }
      ],
      "name": "removeMember",
      "outputs": [],
      "payable": false,
      "stateMutability": "nonpayable",
      "type": "function"
    },
    {
      "constant": true,
      "inputs": [
        {
          "name": "targetMember",
          "type": "address"
        }
      ],
      "name": "memberExists",
      "outputs": [
        {
          "name": "",
          "type": "bool"
        }
      ],
      "payable": false,
      "stateMutability": "view",
      "type": "function"
    },
    {
      "constant": false,
      "inputs": [
        {
          "name": "proposalNumber",
          "type": "uint256"
        },
        {
          "name": "transactionBytecode",
          "type": "bytes"
        }
      ],
      "name": "executeProposal",
      "outputs": [],
      "payable": false,
      "stateMutability": "nonpayable",
      "type": "function"
    },
    {
      "constant": true,
      "inputs": [],
      "name": "getContractAddress",
      "outputs": [
        {
          "name": "",
          "type": "address"
        }
      ],
      "payable": false,
      "stateMutability": "view",
      "type": "function"
    },
    {
      "constant": true,
      "inputs": [
        {
          "name": "",
          "type": "address"
        }
      ],
      "name": "memberId",
      "outputs": [
        {
          "name": "",
          "type": "uint256"
        }
      ],
      "payable": false,
      "stateMutability": "view",
      "type": "function"
    },
    {
      "constant": true,
      "inputs": [],
      "name": "numProposals",
      "outputs": [
        {
          "name": "",
          "type": "uint256"
        }
      ],
      "payable": false,
      "stateMutability": "view",
      "type": "function"
    },
    {
      "constant": true,
      "inputs": [
        {
          "name": "proposalNumber",
          "type": "uint256"
        },
        {
          "name": "transactionBytecode",
          "type": "bytes"
        }
      ],
      "name": "checkProposalCode",
      "outputs": [
        {
          "name": "codeChecksOut",
          "type": "bool"
        }
      ],
      "payable": false,
      "stateMutability": "view",
      "type": "function"
    },
    {
      "constant": false,
      "inputs": [
        {
          "name": "jobDescription",
          "type": "string"
        },
        {
          "name": "transactionBytecode",
          "type": "bytes"
        }
      ],
      "name": "newProposal",
      "outputs": [
        {
          "name": "proposalID",
          "type": "uint256"
        }
      ],
      "payable": false,
      "stateMutability": "nonpayable",
      "type": "function"
    },
    {
      "constant": true,
      "inputs": [
        {
          "name": "",
          "type": "uint256"
        }
      ],
      "name": "members",
      "outputs": [
        {
          "name": "",
          "type": "address"
        }
      ],
      "payable": false,
      "stateMutability": "view",
      "type": "function"
    },
    {
      "constant": true,
      "inputs": [],
      "name": "debatingPeriodInMinutes",
      "outputs": [
        {
          "name": "",
          "type": "uint256"
        }
      ],
      "payable": false,
      "stateMutability": "view",
      "type": "function"
    },
    {
      "constant": true,
      "inputs": [],
      "name": "minimumQuorum",
      "outputs": [
        {
          "name": "",
          "type": "uint256"
        }
      ],
      "payable": false,
      "stateMutability": "view",
      "type": "function"
    },
    {
      "constant": true,
      "inputs": [],
      "name": "owner",
      "outputs": [
        {
          "name": "",
          "type": "address"
        }
      ],
      "payable": false,
      "stateMutability": "view",
      "type": "function"
    },
    {
      "constant": false,
      "inputs": [
        {
          "name": "_from",
          "type": "address"
        },
        {
          "name": "_value",
          "type": "uint256"
        },
        {
          "name": "_token",
          "type": "address"
        },
        {
          "name": "_extraData",
          "type": "bytes"
        }
      ],
      "name": "receiveApproval",
      "outputs": [],
      "payable": false,
      "stateMutability": "nonpayable",
      "type": "function"
    },
    {
      "constant": true,
      "inputs": [],
      "name": "getMembers",
      "outputs": [
        {
          "name": "",
          "type": "address[]"
        }
      ],
      "payable": false,
      "stateMutability": "view",
      "type": "function"
    },
    {
      "constant": true,
      "inputs": [],
      "name": "majorityMargin",
      "outputs": [
        {
          "name": "",
          "type": "int256"
        }
      ],
      "payable": false,
      "stateMutability": "view",
      "type": "function"
    },
    {
      "constant": false,
      "inputs": [
        {
          "name": "minimumQuorumForProposals",
          "type": "uint256"
        },
        {
          "name": "minutesForDebate",
          "type": "uint256"
        },
        {
          "name": "marginOfVotesForMajority",
          "type": "int256"
        }
      ],
      "name": "changeVotingRules",
      "outputs": [],
      "payable": false,
      "stateMutability": "nonpayable",
      "type": "function"
    },
    {
      "constant": false,
      "inputs": [
        {
          "name": "proposalNumber",
          "type": "uint256"
        },
        {
          "name": "supportsProposal",
          "type": "bool"
        }
      ],
      "name": "vote",
      "outputs": [
        {
          "name": "voteID",
          "type": "uint256"
        }
      ],
      "payable": false,
      "stateMutability": "nonpayable",
      "type": "function"
    },
    {
      "constant": false,
      "inputs": [
        {
          "name": "targetMember",
          "type": "address"
        }
      ],
      "name": "addMember",
      "outputs": [],
      "payable": false,
      "stateMutability": "nonpayable",
      "type": "function"
    },
    {
      "constant": false,
      "inputs": [
        {
          "name": "newOwner",
          "type": "address"
        }
      ],
      "name": "transferOwnership",
      "outputs": [],
      "payable": false,
      "stateMutability": "nonpayable",
      "type": "function"
    },
    {
      "inputs": [
        {
          "name": "minimumQuorumForProposals",
          "type": "uint256"
        },
        {
          "name": "minutesForDebate",
          "type": "uint256"
        },
        {
          "name": "marginOfVotesForMajority",
          "type": "int256"
        }
      ],
      "payable": true,
      "stateMutability": "payable",
      "type": "constructor"
    },
    {
      "payable": true,
      "stateMutability": "payable",
      "type": "fallback"
    },
    {
      "anonymous": false,
      "inputs": [
        {
          "indexed": false,
          "name": "proposalID",
          "type": "uint256"
        },
        {
          "indexed": false,
          "name": "description",
          "type": "string"
        }
      ],
      "name": "ProposalAdded",
      "type": "event"
    },
    {
      "anonymous": false,
      "inputs": [
        {
          "indexed": false,
          "name": "proposalID",
          "type": "uint256"
        },
        {
          "indexed": false,
          "name": "position",
          "type": "bool"
        },
        {
          "indexed": false,
          "name": "voter",
          "type": "address"
        }
      ],
      "name": "Voted",
      "type": "event"
    },
    {
      "anonymous": false,
      "inputs": [
        {
          "indexed": false,
          "name": "proposalID",
          "type": "uint256"
        },
        {
          "indexed": false,
          "name": "result",
          "type": "int256"
        },
        {
          "indexed": false,
          "name": "quorum",
          "type": "uint256"
        },
        {
          "indexed": false,
          "name": "active",
          "type": "bool"
        }
      ],
      "name": "ProposalTallied",
      "type": "event"
    },
    {
      "anonymous": false,
      "inputs": [
        {
          "indexed": false,
          "name": "member",
          "type": "address"
        },
        {
          "indexed": false,
          "name": "isMember",
          "type": "bool"
        }
      ],
      "name": "MembershipChanged",
      "type": "event"
    },
    {
      "anonymous": false,
      "inputs": [
        {
          "indexed": false,
          "name": "newMinimumQuorum",
          "type": "uint256"
        },
        {
          "indexed": false,
          "name": "newDebatingPeriodInMinutes",
          "type": "uint256"
        },
        {
          "indexed": false,
          "name": "newMajorityMargin",
          "type": "int256"
        }
      ],
      "name": "ChangeOfRules",
      "type": "event"
    },
    {
      "anonymous": false,
      "inputs": [
        {
          "indexed": false,
          "name": "sender",
          "type": "address"
        },
        {
          "indexed": false,
          "name": "amount",
          "type": "uint256"
        }
      ],
      "name": "receivedEther",
      "type": "event"
    },
    {
      "anonymous": false,
      "inputs": [
        {
          "indexed": false,
          "name": "_from",
          "type": "address"
        },
        {
          "indexed": false,
          "name": "_value",
          "type": "uint256"
        },
        {
          "indexed": false,
          "name": "_token",
          "type": "address"
        },
        {
          "indexed": false,
          "name": "_extraData",
          "type": "bytes"
        }
      ],
      "name": "receivedTokens",
      "type": "event"
    }
  ],
  "bytecode": "0x606060405260405160608062001e6f83398101604052808051906020019091908051906020019091908051906020019091905050336000806101000a81548173ffffffffffffffffffffffffffffffffffffffff021916908373ffffffffffffffffffffffffffffffffffffffff16021790555062000094838383620000fd640100000000026200136f176401000000009004565b620000b46000620001c06401000000000262001625176401000000009004565b620000f46000809054906101000a900473ffffffffffffffffffffffffffffffffffffffff16620001c06401000000000262001625176401000000009004565b50505062000395565b6000809054906101000a900473ffffffffffffffffffffffffffffffffffffffff1673ffffffffffffffffffffffffffffffffffffffff163373ffffffffffffffffffffffffffffffffffffffff161415156200015957600080fd5b8260018190555081600281905550806003819055507fa439d3fa452be5e0e1e24a8145e715f4fd8b9c08c96a42fd82a855a85e5d57de60015460025460035460405180848152602001838152602001828152602001935050505060405180910390a1505050565b6000600660008373ffffffffffffffffffffffffffffffffffffffff1673ffffffffffffffffffffffffffffffffffffffff16815260200190815260200160002054905060008114156200027057600780549050600660008473ffffffffffffffffffffffffffffffffffffffff1673ffffffffffffffffffffffffffffffffffffffff16815260200190815260200160002081905550600780548091906001016200026d91906200033e565b90505b816007828154811015156200028157fe5b906000526020600020900160006101000a81548173ffffffffffffffffffffffffffffffffffffffff021916908373ffffffffffffffffffffffffffffffffffffffff1602179055507f27b022af4a8347100c7a041ce5ccf8e14d644ff05de696315196faae8cd50c9b826001604051808373ffffffffffffffffffffffffffffffffffffffff1673ffffffffffffffffffffffffffffffffffffffff168152602001821515151581526020019250505060405180910390a15050565b81548183558181151162000368578183600052602060002091820191016200036791906200036d565b5b505050565b6200039291905b808211156200038e57600081600090555060010162000374565b5090565b90565b611aca80620003a56000396000f300606060405260043610610112576000357c0100000000000000000000000000000000000000000000000000000000900463ffffffff168063013cf08b1461017f5780630b1ca49a14610272578063199d5a88146102ab578063237e9492146102fc57806332a2c5d01461036257806339106821146103b7578063400e39491461040457806341bb4c2c1461042d5780634c6b6cad146104ab5780635daf08ca1461055f57806369bd3436146105c25780638160f0b5146105eb5780638da5cb5b146106145780638f4ffcb1146106695780639eab52531461070d578063aa02a90f14610777578063bcca1fd3146107a0578063c9d27afe146107d5578063ca6d56dc14610817578063f2fde38b14610850575b7fa398b89ba344a0b23a0b9de53db298b2a1a868b396c1878b7e9dcbafecd49b133334604051808373ffffffffffffffffffffffffffffffffffffffff1673ffffffffffffffffffffffffffffffffffffffff1681526020018281526020019250505060405180910390a1005b341561018a57600080fd5b6101a06004808035906020019091905050610889565b60405180806020018881526020018715151515815260200186151515158152602001858152602001848152602001836000191660001916815260200182810382528981815460018160011615610100020316600290048152602001915080546001816001161561010002031660029004801561025d5780601f106102325761010080835404028352916020019161025d565b820191906000526020600020905b81548152906001019060200180831161024057829003601f168201915b50509850505050505050505060405180910390f35b341561027d57600080fd5b6102a9600480803573ffffffffffffffffffffffffffffffffffffffff169060200190919050506108f3565b005b34156102b657600080fd5b6102e2600480803573ffffffffffffffffffffffffffffffffffffffff16906020019091905050610af4565b604051808215151515815260200191505060405180910390f35b341561030757600080fd5b610360600480803590602001909190803590602001908201803590602001908080601f01602080910402602001604051908101604052809392919081815260200183838082843782019150505050505091905050610baa565b005b341561036d57600080fd5b610375610d5f565b604051808273ffffffffffffffffffffffffffffffffffffffff1673ffffffffffffffffffffffffffffffffffffffff16815260200191505060405180910390f35b34156103c257600080fd5b6103ee600480803573ffffffffffffffffffffffffffffffffffffffff16906020019091905050610d67565b6040518082815260200191505060405180910390f35b341561040f57600080fd5b610417610d7f565b6040518082815260200191505060405180910390f35b341561043857600080fd5b610491600480803590602001909190803590602001908201803590602001908080601f01602080910402602001604051908101604052809392919081815260200183838082843782019150505050505091905050610d85565b604051808215151515815260200191505060405180910390f35b34156104b657600080fd5b610549600480803590602001908201803590602001908080601f0160208091040260200160405190810160405280939291908181526020018383808284378201915050505050509190803590602001908201803590602001908080601f01602080910402602001604051908101604052809392919081815260200183838082843782019150505050505091905050610e21565b6040518082815260200191505060405180910390f35b341561056a57600080fd5b6105806004808035906020019091905050611048565b604051808273ffffffffffffffffffffffffffffffffffffffff1673ffffffffffffffffffffffffffffffffffffffff16815260200191505060405180910390f35b34156105cd57600080fd5b6105d5611087565b6040518082815260200191505060405180910390f35b34156105f657600080fd5b6105fe61108d565b6040518082815260200191505060405180910390f35b341561061f57600080fd5b610627611093565b604051808273ffffffffffffffffffffffffffffffffffffffff1673ffffffffffffffffffffffffffffffffffffffff16815260200191505060405180910390f35b341561067457600080fd5b61070b600480803573ffffffffffffffffffffffffffffffffffffffff1690602001909190803590602001909190803573ffffffffffffffffffffffffffffffffffffffff1690602001909190803590602001908201803590602001908080601f016020809104026020016040519081016040528093929190818152602001838380828437820191505050505050919050506110b8565b005b341561071857600080fd5b6107206112d5565b6040518080602001828103825283818151815260200191508051906020019060200280838360005b83811015610763578082015181840152602081019050610748565b505050509050019250505060405180910390f35b341561078257600080fd5b61078a611369565b6040518082815260200191505060405180910390f35b34156107ab57600080fd5b6107d3600480803590602001909190803590602001909190803590602001909190505061136f565b005b34156107e057600080fd5b61080160048080359060200190919080351515906020019091905050611431565b6040518082815260200191505060405180910390f35b341561082257600080fd5b61084e600480803573ffffffffffffffffffffffffffffffffffffffff16906020019091905050611625565b005b341561085b57600080fd5b610887600480803573ffffffffffffffffffffffffffffffffffffffff1690602001909190505061179f565b005b60048181548110151561089857fe5b906000526020600020906008020160009150905080600001908060010154908060020160009054906101000a900460ff16908060020160019054906101000a900460ff16908060030154908060040154908060050154905087565b60008060009054906101000a900473ffffffffffffffffffffffffffffffffffffffff1673ffffffffffffffffffffffffffffffffffffffff163373ffffffffffffffffffffffffffffffffffffffff1614151561095057600080fd5b6000600660008473ffffffffffffffffffffffffffffffffffffffff1673ffffffffffffffffffffffffffffffffffffffff168152602001908152602001600020541415151561099f57600080fd5b600660008373ffffffffffffffffffffffffffffffffffffffff1673ffffffffffffffffffffffffffffffffffffffff1681526020019081526020016000205490505b600160078054905003811015610a9557600760018201815481101515610a0457fe5b906000526020600020900160009054906101000a900473ffffffffffffffffffffffffffffffffffffffff16600782815481101515610a3f57fe5b906000526020600020900160006101000a81548173ffffffffffffffffffffffffffffffffffffffff021916908373ffffffffffffffffffffffffffffffffffffffff16021790555080806001019150506109e2565b6007600160078054905003815481101515610aac57fe5b906000526020600020900160006101000a81549073ffffffffffffffffffffffffffffffffffffffff02191690556007805480919060019003610aef919061183d565b505050565b600080600660008473ffffffffffffffffffffffffffffffffffffffff1673ffffffffffffffffffffffffffffffffffffffff1681526020019081526020016000205490508273ffffffffffffffffffffffffffffffffffffffff16600782815481101515610b5f57fe5b906000526020600020900160009054906101000a900473ffffffffffffffffffffffffffffffffffffffff1673ffffffffffffffffffffffffffffffffffffffff1614915050919050565b6000600483815481101515610bbb57fe5b90600052602060002090600802019050806001015442118015610bed57508060020160009054906101000a900460ff16155b8015610c665750816040518082805190602001908083835b602083101515610c2a5780518252602082019150602081019050602083039250610c05565b6001836020036101000a038019825116818451168082178552505050505050905001915050604051809103902060001916816005015460001916145b8015610c785750600154816003015410155b1515610c8357600080fd5b60035481600401541315610cd05760018160020160006101000a81548160ff02191690831515021790555060018160020160016101000a81548160ff021916908315150217905550610cee565b60008160020160016101000a81548160ff0219169083151502179055505b7fd220b7272a8b6d0d7d6bcdace67b936a8f175e6d5c1b3ee438b72256b32ab3af83826004015483600301548460020160019054906101000a900460ff16604051808581526020018481526020018381526020018215151515815260200194505050505060405180910390a1505050565b600030905090565b60066020528060005260406000206000915090505481565b60055481565b600080600484815481101515610d9757fe5b90600052602060002090600802019050826040518082805190602001908083835b602083101515610ddd5780518252602082019150602081019050602083039250610db8565b6001836020036101000a0380198251168184511680821785525050505050509050019150506040518091039020600019168160050154600019161491505092915050565b6000806000809054906101000a900473ffffffffffffffffffffffffffffffffffffffff1673ffffffffffffffffffffffffffffffffffffffff163373ffffffffffffffffffffffffffffffffffffffff16141515610e7f57600080fd5b60048054809190600101610e939190611869565b9150600482815481101515610ea457fe5b9060005260206000209060080201905083816000019080519060200190610ecc92919061189b565b50826040518082805190602001908083835b602083101515610f035780518252602082019150602081019050602083039250610ede565b6001836020036101000a0380198251168184511680821785525050505050509050019150506040518091039020816005018160001916905550603c600254024201816001018190555060008160020160006101000a81548160ff02191690831515021790555060008160020160016101000a81548160ff021916908315150217905550600081600301819055507ff970aa486598017b8116c2beb18c50d4584ecbc3c688817f59b26796725f31bf82856040518083815260200180602001828103825283818151815260200191508051906020019080838360005b83811015610ff9578082015181840152602081019050610fde565b50505050905090810190601f1680156110265780820380516001836020036101000a031916815260200191505b50935050505060405180910390a1600182016005819055508191505092915050565b60078181548110151561105757fe5b90600052602060002090016000915054906101000a900473ffffffffffffffffffffffffffffffffffffffff1681565b60025481565b60015481565b6000809054906101000a900473ffffffffffffffffffffffffffffffffffffffff1681565b60008290508073ffffffffffffffffffffffffffffffffffffffff166323b872dd8630876000604051602001526040518463ffffffff167c0100000000000000000000000000000000000000000000000000000000028152600401808473ffffffffffffffffffffffffffffffffffffffff1673ffffffffffffffffffffffffffffffffffffffff1681526020018373ffffffffffffffffffffffffffffffffffffffff1673ffffffffffffffffffffffffffffffffffffffff1681526020018281526020019350505050602060405180830381600087803b151561119c57600080fd5b6102c65a03f115156111ad57600080fd5b5050506040518051905015156111c257600080fd5b7f0eeb71b8926d7ed8f47a2cedf6b9b204e2001344c7fa20c696c9f06ea7c413c685858585604051808573ffffffffffffffffffffffffffffffffffffffff1673ffffffffffffffffffffffffffffffffffffffff1681526020018481526020018373ffffffffffffffffffffffffffffffffffffffff1673ffffffffffffffffffffffffffffffffffffffff16815260200180602001828103825283818151815260200191508051906020019080838360005b83811015611291578082015181840152602081019050611276565b50505050905090810190601f1680156112be5780820380516001836020036101000a031916815260200191505b509550505050505060405180910390a15050505050565b6112dd61191b565b600780548060200260200160405190810160405280929190818152602001828054801561135f57602002820191906000526020600020905b8160009054906101000a900473ffffffffffffffffffffffffffffffffffffffff1673ffffffffffffffffffffffffffffffffffffffff1681526020019060010190808311611315575b5050505050905090565b60035481565b6000809054906101000a900473ffffffffffffffffffffffffffffffffffffffff1673ffffffffffffffffffffffffffffffffffffffff163373ffffffffffffffffffffffffffffffffffffffff161415156113ca57600080fd5b8260018190555081600281905550806003819055507fa439d3fa452be5e0e1e24a8145e715f4fd8b9c08c96a42fd82a855a85e5d57de60015460025460035460405180848152602001838152602001828152602001935050505060405180910390a1505050565b6000806000600660003373ffffffffffffffffffffffffffffffffffffffff1673ffffffffffffffffffffffffffffffffffffffff168152602001908152602001600020541415151561148357600080fd5b60048481548110151561149257fe5b906000526020600020906008020190508060070160003373ffffffffffffffffffffffffffffffffffffffff1673ffffffffffffffffffffffffffffffffffffffff16815260200190815260200160002060009054906101000a900460ff161515156114fd57600080fd5b60018160070160003373ffffffffffffffffffffffffffffffffffffffff1673ffffffffffffffffffffffffffffffffffffffff16815260200190815260200160002060006101000a81548160ff0219169083151502179055508060030160008154809291906001019190505550821561158a5780600401600081548092919060010191905055506115a0565b8060040160008154809291906001900391905055505b7f86abfce99b7dd908bec0169288797f85049ec73cbe046ed9de818fab3a497ae084843360405180848152602001831515151581526020018273ffffffffffffffffffffffffffffffffffffffff1673ffffffffffffffffffffffffffffffffffffffff168152602001935050505060405180910390a1806003015491505092915050565b6000600660008373ffffffffffffffffffffffffffffffffffffffff1673ffffffffffffffffffffffffffffffffffffffff16815260200190815260200160002054905060008114156116d257600780549050600660008473ffffffffffffffffffffffffffffffffffffffff1673ffffffffffffffffffffffffffffffffffffffff16815260200190815260200160002081905550600780548091906001016116cf919061183d565b90505b816007828154811015156116e257fe5b906000526020600020900160006101000a81548173ffffffffffffffffffffffffffffffffffffffff021916908373ffffffffffffffffffffffffffffffffffffffff1602179055507f27b022af4a8347100c7a041ce5ccf8e14d644ff05de696315196faae8cd50c9b826001604051808373ffffffffffffffffffffffffffffffffffffffff1673ffffffffffffffffffffffffffffffffffffffff168152602001821515151581526020019250505060405180910390a15050565b6000809054906101000a900473ffffffffffffffffffffffffffffffffffffffff1673ffffffffffffffffffffffffffffffffffffffff163373ffffffffffffffffffffffffffffffffffffffff161415156117fa57600080fd5b806000806101000a81548173ffffffffffffffffffffffffffffffffffffffff021916908373ffffffffffffffffffffffffffffffffffffffff16021790555050565b81548183558181151161186457818360005260206000209182019101611863919061192f565b5b505050565b815481835581811511611896576008028160080283600052602060002091820191016118959190611954565b5b505050565b828054600181600116156101000203166002900490600052602060002090601f016020900481019282601f106118dc57805160ff191683800117855561190a565b8280016001018555821561190a579182015b828111156119095782518255916020019190600101906118ee565b5b509050611917919061192f565b5090565b602060405190810160405280600081525090565b61195191905b8082111561194d576000816000905550600101611935565b5090565b90565b6119d891905b808211156119d4576000808201600061197391906119db565b60018201600090556002820160006101000a81549060ff02191690556002820160016101000a81549060ff02191690556003820160009055600482016000905560058201600090556006820160006119cb9190611a23565b5060080161195a565b5090565b90565b50805460018160011615610100020316600290046000825580601f10611a015750611a20565b601f016020900490600052602060002090810190611a1f919061192f565b5b50565b5080546000825590600052602060002090810190611a419190611a44565b50565b611a9b91905b80821115611a9757600080820160006101000a81549060ff02191690556000820160016101000a81549073ffffffffffffffffffffffffffffffffffffffff021916905550600101611a4a565b5090565b905600a165627a7a72305820b3d638713b41d4580318a04f7075ea294aa4c0857927d537041d83feaad169f20029",
  "source": "pragma solidity ^0.4.16;\r\n\r\ncontract owned {\r\n    address public owner;\r\n\r\n    function owned()  public {\r\n        owner = msg.sender;\r\n    }\r\n\r\n    modifier onlyOwner {\r\n        require(msg.sender == owner);\r\n        _;\r\n    }\r\n\r\n    function transferOwnership(address newOwner) onlyOwner  public {\r\n        owner = newOwner;\r\n    }\r\n}\r\n\r\ncontract tokenRecipient {\r\n    event receivedEther(address sender, uint amount);\r\n    event receivedTokens(address _from, uint256 _value, address _token, bytes _extraData);\r\n\r\n    function receiveApproval(address _from, uint256 _value, address _token, bytes _extraData) public {\r\n        Token t = Token(_token);\r\n        require(t.transferFrom(_from, this, _value));\r\n        receivedTokens(_from, _value, _token, _extraData);\r\n    }\r\n\r\n    function () payable  public {\r\n        receivedEther(msg.sender, msg.value);\r\n    }\r\n}\r\n\r\ninterface Token {\r\n    function transferFrom(address _from, address _to, uint256 _value) public returns (bool success);\r\n}\r\n\r\ncontract Congress is owned, tokenRecipient {\r\n    // Contract Variables and events\r\n    uint public minimumQuorum;\r\n    uint public debatingPeriodInMinutes;\r\n    int public majorityMargin;\r\n    Proposal[] public proposals;\r\n    uint public numProposals;\r\n    mapping (address => uint) public memberId;\r\n    address[] public members;\r\n\r\n    event ProposalAdded(uint proposalID, string description);\r\n    event Voted(uint proposalID, bool position, address voter);\r\n    event ProposalTallied(uint proposalID, int result, uint quorum, bool active);\r\n    event MembershipChanged(address member, bool isMember);\r\n    event ChangeOfRules(uint newMinimumQuorum, uint newDebatingPeriodInMinutes, int newMajorityMargin);\r\n\r\n    struct Proposal {\r\n        string description;\r\n        uint votingDeadline;\r\n        bool executed;\r\n        bool proposalPassed;\r\n        uint numberOfVotes;\r\n        int currentResult;\r\n        bytes32 proposalHash;\r\n        Vote[] votes;\r\n        mapping (address => bool) voted;\r\n    }\r\n\r\n    struct Vote {\r\n        bool inSupport;\r\n        address voter;\r\n    }\r\n\r\n    // Modifier that allows only shareholders to vote and create new proposals\r\n    modifier onlyMembers {\r\n        require(memberId[msg.sender] != 0);\r\n        _;\r\n    }\r\n\r\n    /**\r\n     * Constructor function\r\n     */\r\n    function Congress (uint minimumQuorumForProposals, uint minutesForDebate, int marginOfVotesForMajority)  payable public {\r\n        changeVotingRules(minimumQuorumForProposals, minutesForDebate, marginOfVotesForMajority);\r\n        // Its necessary to add an empty first member\r\n        addMember(0);\r\n        // and let's add the founder, to save a step later\r\n        addMember(owner);\r\n    }\r\n\r\n    /**\r\n     * Add member\r\n     *\r\n     * Make `targetMember` a member.\r\n     *\r\n     * @param targetMember ethereum address to be added\r\n     */\r\n    function addMember(address targetMember) public { //deleted onlyOwner modifier for testing purposes\r\n        uint id = memberId[targetMember];\r\n        if (id == 0) {\r\n            memberId[targetMember] = members.length;\r\n            id = members.length++;\r\n        }\r\n\r\n        members[id] = targetMember;\r\n        MembershipChanged(targetMember, true);\r\n    }\r\n\r\n    /**\r\n     * Remove member\r\n     *\r\n     * @notice Remove membership from `targetMember`\r\n     *\r\n     * @param targetMember ethereum address to be removed\r\n     */\r\n    function removeMember(address targetMember) onlyOwner public {\r\n        require(memberId[targetMember] != 0);\r\n\r\n        for (uint i = memberId[targetMember]; i<members.length-1; i++) {\r\n            members[i] = members[i+1];\r\n        }\r\n        delete members[members.length-1];\r\n        members.length--;\r\n    }\r\n\r\n    /**\r\n     * Change voting rules\r\n     *\r\n     * Make so that proposals need tobe discussed for at least `minutesForDebate/60` hours,\r\n     * have at least `minimumQuorumForProposals` votes, and have 50% + `marginOfVotesForMajority` votes to be executed\r\n     *\r\n     * @param minimumQuorumForProposals how many members must vote on a proposal for it to be executed\r\n     * @param minutesForDebate the minimum amount of delay between when a proposal is made and when it can be executed\r\n     * @param marginOfVotesForMajority the proposal needs to have 50% plus this number\r\n     */\r\n    function changeVotingRules(uint minimumQuorumForProposals, uint minutesForDebate, int marginOfVotesForMajority) onlyOwner public {\r\n        minimumQuorum = minimumQuorumForProposals;\r\n        debatingPeriodInMinutes = minutesForDebate;\r\n        majorityMargin = marginOfVotesForMajority;\r\n\r\n        ChangeOfRules(minimumQuorum, debatingPeriodInMinutes, majorityMargin);\r\n    }\r\n\r\n    /**\r\n     * Add Proposal\r\n     *\r\n     * Propose to send `weiAmount / 1e18` ether to `beneficiary` for `jobDescription`. `transactionBytecode ? Contains : Does not contain` code.\r\n     *\r\n     * @param jobDescription Description of job\r\n     * @param transactionBytecode bytecode of transaction\r\n     */\r\n    function newProposal(\r\n        string jobDescription,\r\n        bytes transactionBytecode\r\n    )\r\n        onlyOwner public\r\n        returns (uint proposalID)\r\n    {\r\n        proposalID = proposals.length++;\r\n        Proposal storage p = proposals[proposalID];\r\n        p.description = jobDescription;\r\n        p.proposalHash = keccak256(transactionBytecode);\r\n        p.votingDeadline = now + debatingPeriodInMinutes * 1 minutes;\r\n        p.executed = false;\r\n        p.proposalPassed = false;\r\n        p.numberOfVotes = 0;\r\n        ProposalAdded(proposalID, jobDescription);\r\n        numProposals = proposalID+1;\r\n\r\n        return proposalID;\r\n    }\r\n\r\n    /**\r\n     * Check if a proposal code matches\r\n     *\r\n     * @param proposalNumber ID number of the proposal to query\r\n     * @param transactionBytecode bytecode of transaction\r\n     */\r\n    function checkProposalCode(\r\n        uint proposalNumber,\r\n        bytes transactionBytecode\r\n    )\r\n        constant public\r\n        returns (bool codeChecksOut)\r\n    {\r\n        Proposal storage p = proposals[proposalNumber];\r\n        return p.proposalHash == keccak256(transactionBytecode);\r\n    }\r\n\r\n    /**\r\n     * Log a vote for a proposal\r\n     *\r\n     * Vote `supportsProposal? in support of : against` proposal #`proposalNumber`\r\n     *\r\n     * @param proposalNumber number of proposal\r\n     * @param supportsProposal either in favor or against it\r\n     */\r\n    function vote(\r\n        uint proposalNumber,\r\n        bool supportsProposal\r\n    )\r\n        onlyMembers public\r\n        returns (uint voteID)\r\n    {\r\n        Proposal storage p = proposals[proposalNumber];         // Get the proposal\r\n        require(!p.voted[msg.sender]);         // If has already voted, cancel\r\n        p.voted[msg.sender] = true;                     // Set this voter as having voted\r\n        p.numberOfVotes++;                              // Increase the number of votes\r\n        if (supportsProposal) {                         // If they support the proposal\r\n            p.currentResult++;                          // Increase score\r\n        } else {                                        // If they don't\r\n            p.currentResult--;                          // Decrease the score\r\n        }\r\n\r\n        // Create a log of this event\r\n        Voted(proposalNumber,  supportsProposal, msg.sender);\r\n        return p.numberOfVotes;\r\n    }\r\n\r\n    /**\r\n     * Finish vote\r\n     *\r\n     * Count the votes proposal #`proposalNumber` and execute it if approved\r\n     *\r\n     * @param proposalNumber proposal number\r\n     * @param transactionBytecode optional: if the transaction contained a bytecode, you need to send it\r\n     */\r\n    function executeProposal(uint proposalNumber, bytes transactionBytecode) public {\r\n        Proposal storage p = proposals[proposalNumber];\r\n\r\n        // If it is past the voting deadline and it has not already been executed\r\n        // and the supplied code matches the proposal and a minimum quorum has been reached...\r\n        require(now > p.votingDeadline && !p.executed && p.proposalHash == keccak256(transactionBytecode) && p.numberOfVotes >= minimumQuorum);                                  \r\n\r\n        // ...then execute result\r\n        if (p.currentResult > majorityMargin) {\r\n            // Proposal passed; execute the transaction\r\n\r\n            p.executed = true; // Avoid recursive calling\r\n            //require(p.recipient.call.value(p.amount)(transactionBytecode));\r\n\r\n            p.proposalPassed = true;\r\n        } else {\r\n            // Proposal failed\r\n            p.proposalPassed = false;\r\n        }\r\n\r\n        // Fire Events\r\n        ProposalTallied(proposalNumber, p.currentResult, p.numberOfVotes, p.proposalPassed);\r\n    }\r\n    \r\n    function getContractAddress() external view returns (address) {\r\n        return this;\r\n    }\r\n    \r\n    function getMembers() external view returns (address[]) {\r\n        return members;\r\n    }\r\n\r\n    function memberExists(address targetMember) external view returns (bool) {\r\n        uint id = memberId[targetMember];\r\n\r\n        return members[id] == targetMember;\r\n    }\r\n}\r\n",
  "sourcePath": "C:\\Users\\marce\\Documents\\GitHub\\BA-WI-Projekt-DAO\\BA-Projekt-17-DAO\\contracts\\Congress.sol",
  "compiler": {
    "name": "solc",
    "version": "0.4.18+commit.9cf6e910.Emscripten.clang"
  },
  "schemaVersion": "1.0.1",
  "updatedAt": "2018-01-06T18:27:46.861Z"
}