{
  "contractName": "Congress",
  "abi": [
    {
      "constant": true,
      "inputs": [
        {
          "name": "",
          "type": "uint256"
        }
      ],
      "name": "proposals",
      "outputs": [
        {
          "name": "description",
          "type": "string"
        },
        {
          "name": "votingDeadline",
          "type": "uint256"
        },
        {
          "name": "executed",
          "type": "bool"
        },
        {
          "name": "proposalPassed",
          "type": "bool"
        },
        {
          "name": "numberOfVotes",
          "type": "uint256"
        },
        {
          "name": "currentResult",
          "type": "int256"
        },
        {
          "name": "proposalHash",
          "type": "bytes32"
        },
        {
          "name": "isValid",
          "type": "bool"
        }
      ],
      "payable": false,
      "stateMutability": "view",
      "type": "function"
    },
    {
      "constant": true,
      "inputs": [
        {
          "name": "",
          "type": "address"
        }
      ],
      "name": "memberId",
      "outputs": [
        {
          "name": "",
          "type": "uint256"
        }
      ],
      "payable": false,
      "stateMutability": "view",
      "type": "function"
    },
    {
      "constant": true,
      "inputs": [],
      "name": "numProposals",
      "outputs": [
        {
          "name": "",
          "type": "uint256"
        }
      ],
      "payable": false,
      "stateMutability": "view",
      "type": "function"
    },
    {
      "constant": true,
      "inputs": [
        {
          "name": "",
          "type": "uint256"
        }
      ],
      "name": "members",
      "outputs": [
        {
          "name": "",
          "type": "address"
        }
      ],
      "payable": false,
      "stateMutability": "view",
      "type": "function"
    },
    {
      "constant": true,
      "inputs": [],
      "name": "debatingPeriodInMinutes",
      "outputs": [
        {
          "name": "",
          "type": "uint256"
        }
      ],
      "payable": false,
      "stateMutability": "view",
      "type": "function"
    },
    {
      "constant": true,
      "inputs": [],
      "name": "minimumQuorum",
      "outputs": [
        {
          "name": "",
          "type": "uint256"
        }
      ],
      "payable": false,
      "stateMutability": "view",
      "type": "function"
    },
    {
      "constant": true,
      "inputs": [],
      "name": "owner",
      "outputs": [
        {
          "name": "",
          "type": "address"
        }
      ],
      "payable": false,
      "stateMutability": "view",
      "type": "function"
    },
    {
      "constant": false,
      "inputs": [
        {
          "name": "_from",
          "type": "address"
        },
        {
          "name": "_value",
          "type": "uint256"
        },
        {
          "name": "_token",
          "type": "address"
        },
        {
          "name": "_extraData",
          "type": "bytes"
        }
      ],
      "name": "receiveApproval",
      "outputs": [],
      "payable": false,
      "stateMutability": "nonpayable",
      "type": "function"
    },
    {
      "constant": true,
      "inputs": [],
      "name": "majorityMargin",
      "outputs": [
        {
          "name": "",
          "type": "int256"
        }
      ],
      "payable": false,
      "stateMutability": "view",
      "type": "function"
    },
    {
      "constant": false,
      "inputs": [
        {
          "name": "newOwner",
          "type": "address"
        }
      ],
      "name": "transferOwnership",
      "outputs": [],
      "payable": false,
      "stateMutability": "nonpayable",
      "type": "function"
    },
    {
      "inputs": [
        {
          "name": "minimumQuorumForProposals",
          "type": "uint256"
        },
        {
          "name": "minutesForDebate",
          "type": "uint256"
        },
        {
          "name": "marginOfVotesForMajority",
          "type": "int256"
        }
      ],
      "payable": true,
      "stateMutability": "payable",
      "type": "constructor"
    },
    {
      "payable": true,
      "stateMutability": "payable",
      "type": "fallback"
    },
    {
      "anonymous": false,
      "inputs": [
        {
          "indexed": false,
          "name": "proposalID",
          "type": "uint256"
        },
        {
          "indexed": false,
          "name": "description",
          "type": "string"
        }
      ],
      "name": "ProposalAdded",
      "type": "event"
    },
    {
      "anonymous": false,
      "inputs": [
        {
          "indexed": false,
          "name": "proposalID",
          "type": "uint256"
        },
        {
          "indexed": false,
          "name": "position",
          "type": "bool"
        },
        {
          "indexed": false,
          "name": "voter",
          "type": "address"
        }
      ],
      "name": "Voted",
      "type": "event"
    },
    {
      "anonymous": false,
      "inputs": [
        {
          "indexed": false,
          "name": "proposalID",
          "type": "uint256"
        },
        {
          "indexed": false,
          "name": "result",
          "type": "int256"
        },
        {
          "indexed": false,
          "name": "quorum",
          "type": "uint256"
        },
        {
          "indexed": false,
          "name": "active",
          "type": "bool"
        }
      ],
      "name": "ProposalTallied",
      "type": "event"
    },
    {
      "anonymous": false,
      "inputs": [
        {
          "indexed": false,
          "name": "member",
          "type": "address"
        },
        {
          "indexed": false,
          "name": "isMember",
          "type": "bool"
        }
      ],
      "name": "MembershipChanged",
      "type": "event"
    },
    {
      "anonymous": false,
      "inputs": [
        {
          "indexed": false,
          "name": "newMinimumQuorum",
          "type": "uint256"
        },
        {
          "indexed": false,
          "name": "newDebatingPeriodInMinutes",
          "type": "uint256"
        },
        {
          "indexed": false,
          "name": "newMajorityMargin",
          "type": "int256"
        }
      ],
      "name": "ChangeOfRules",
      "type": "event"
    },
    {
      "anonymous": false,
      "inputs": [
        {
          "indexed": false,
          "name": "sender",
          "type": "address"
        },
        {
          "indexed": false,
          "name": "amount",
          "type": "uint256"
        }
      ],
      "name": "receivedEther",
      "type": "event"
    },
    {
      "anonymous": false,
      "inputs": [
        {
          "indexed": false,
          "name": "_from",
          "type": "address"
        },
        {
          "indexed": false,
          "name": "_value",
          "type": "uint256"
        },
        {
          "indexed": false,
          "name": "_token",
          "type": "address"
        },
        {
          "indexed": false,
          "name": "_extraData",
          "type": "bytes"
        }
      ],
      "name": "receivedTokens",
      "type": "event"
    },
    {
      "constant": false,
      "inputs": [
        {
          "name": "targetMember",
          "type": "address"
        }
      ],
      "name": "addMember",
      "outputs": [],
      "payable": false,
      "stateMutability": "nonpayable",
      "type": "function"
    },
    {
      "constant": false,
      "inputs": [
        {
          "name": "targetMember",
          "type": "address"
        }
      ],
      "name": "removeMember",
      "outputs": [],
      "payable": false,
      "stateMutability": "nonpayable",
      "type": "function"
    },
    {
      "constant": false,
      "inputs": [
        {
          "name": "minimumQuorumForProposals",
          "type": "uint256"
        },
        {
          "name": "minutesForDebate",
          "type": "uint256"
        },
        {
          "name": "marginOfVotesForMajority",
          "type": "int256"
        }
      ],
      "name": "changeVotingRules",
      "outputs": [],
      "payable": false,
      "stateMutability": "nonpayable",
      "type": "function"
    },
    {
      "constant": false,
      "inputs": [
        {
          "name": "jobDescription",
          "type": "string"
        },
        {
          "name": "transactionBytecode",
          "type": "bytes"
        }
      ],
      "name": "newProposal",
      "outputs": [
        {
          "name": "proposalID",
          "type": "uint256"
        }
      ],
      "payable": false,
      "stateMutability": "nonpayable",
      "type": "function"
    },
    {
      "constant": true,
      "inputs": [
        {
          "name": "proposalNumber",
          "type": "uint256"
        },
        {
          "name": "transactionBytecode",
          "type": "bytes"
        }
      ],
      "name": "checkProposalCode",
      "outputs": [
        {
          "name": "codeChecksOut",
          "type": "bool"
        }
      ],
      "payable": false,
      "stateMutability": "view",
      "type": "function"
    },
    {
      "constant": false,
      "inputs": [
        {
          "name": "proposalNumber",
          "type": "uint256"
        },
        {
          "name": "supportsProposal",
          "type": "bool"
        }
      ],
      "name": "vote",
      "outputs": [
        {
          "name": "voteID",
          "type": "uint256"
        }
      ],
      "payable": false,
      "stateMutability": "nonpayable",
      "type": "function"
    },
    {
      "constant": false,
      "inputs": [
        {
          "name": "proposalNumber",
          "type": "uint256"
        },
        {
          "name": "transactionBytecode",
          "type": "bytes"
        }
      ],
      "name": "executeProposal",
      "outputs": [],
      "payable": false,
      "stateMutability": "nonpayable",
      "type": "function"
    },
    {
      "constant": true,
      "inputs": [
        {
          "name": "targetMember",
          "type": "address"
        }
      ],
      "name": "memberExists",
      "outputs": [
        {
          "name": "",
          "type": "bool"
        }
      ],
      "payable": false,
      "stateMutability": "view",
      "type": "function"
    },
    {
      "constant": true,
      "inputs": [
        {
          "name": "proposalID",
          "type": "uint256"
        }
      ],
      "name": "proposalExists",
      "outputs": [
        {
          "name": "",
          "type": "bool"
        }
      ],
      "payable": false,
      "stateMutability": "view",
      "type": "function"
    },
    {
      "constant": true,
      "inputs": [
        {
          "name": "targetMember",
          "type": "address"
        },
        {
          "name": "proposalID",
          "type": "uint256"
        }
      ],
      "name": "memberHasVoted",
      "outputs": [
        {
          "name": "",
          "type": "bool"
        }
      ],
      "payable": false,
      "stateMutability": "view",
      "type": "function"
    },
    {
      "constant": true,
      "inputs": [
        {
          "name": "proposalID",
          "type": "uint256"
        }
      ],
      "name": "getProposalDescription",
      "outputs": [
        {
          "name": "",
          "type": "string"
        }
      ],
      "payable": false,
      "stateMutability": "view",
      "type": "function"
    },
    {
      "constant": true,
      "inputs": [
        {
          "name": "proposalID",
          "type": "uint256"
        }
      ],
      "name": "getCurrentResults",
      "outputs": [
        {
          "name": "",
          "type": "int256"
        }
      ],
      "payable": false,
      "stateMutability": "view",
      "type": "function"
    },
    {
      "constant": true,
      "inputs": [
        {
          "name": "proposalID",
          "type": "uint256"
        }
      ],
      "name": "getNumberOfVotes",
      "outputs": [
        {
          "name": "",
          "type": "uint256"
        }
      ],
      "payable": false,
      "stateMutability": "view",
      "type": "function"
    }
  ],
  "bytecode": "0x6060604052604051606080620021d283398101604052808051906020019091908051906020019091908051906020019091905050336000806101000a81548173ffffffffffffffffffffffffffffffffffffffff021916908373ffffffffffffffffffffffffffffffffffffffff16021790555062000094838383620000fd64010000000002620015dd176401000000009004565b620000b46000620001c064010000000002620018bd176401000000009004565b620000f46000809054906101000a900473ffffffffffffffffffffffffffffffffffffffff16620001c064010000000002620018bd176401000000009004565b505050620003f1565b6000809054906101000a900473ffffffffffffffffffffffffffffffffffffffff1673ffffffffffffffffffffffffffffffffffffffff163373ffffffffffffffffffffffffffffffffffffffff161415156200015957600080fd5b8260018190555081600281905550806003819055507fa439d3fa452be5e0e1e24a8145e715f4fd8b9c08c96a42fd82a855a85e5d57de60015460025460035460405180848152602001838152602001828152602001935050505060405180910390a1505050565b60008060009054906101000a900473ffffffffffffffffffffffffffffffffffffffff1673ffffffffffffffffffffffffffffffffffffffff163373ffffffffffffffffffffffffffffffffffffffff161415156200021e57600080fd5b600660008373ffffffffffffffffffffffffffffffffffffffff1673ffffffffffffffffffffffffffffffffffffffff1681526020019081526020016000205490506000811415620002cc57600780549050600660008473ffffffffffffffffffffffffffffffffffffffff1673ffffffffffffffffffffffffffffffffffffffff1681526020019081526020016000208190555060078054809190600101620002c991906200039a565b90505b81600782815481101515620002dd57fe5b906000526020600020900160006101000a81548173ffffffffffffffffffffffffffffffffffffffff021916908373ffffffffffffffffffffffffffffffffffffffff1602179055507f27b022af4a8347100c7a041ce5ccf8e14d644ff05de696315196faae8cd50c9b826001604051808373ffffffffffffffffffffffffffffffffffffffff1673ffffffffffffffffffffffffffffffffffffffff168152602001821515151581526020019250505060405180910390a15050565b815481835581811511620003c457818360005260206000209182019101620003c39190620003c9565b5b505050565b620003ee91905b80821115620003ea576000816000905550600101620003d0565b5090565b90565b611dd180620004016000396000f300606060405260043610610133576000357c0100000000000000000000000000000000000000000000000000000000900463ffffffff168063013cf08b146101a05780630b1ca49a1461029e5780631374b22d146102d7578063199d5a8814610312578063229acb1714610363578063237e9492146103ff5780633910682114610465578063400e3949146104b257806341bb4c2c146104db5780634c6b6cad146105595780635daf08ca1461060d57806369bd3436146106705780636f4f7ee3146106995780638160f0b5146106d05780638da5cb5b146106f95780638f4ffcb11461074e578063a220e64a146107f2578063aa02a90f1461084c578063bcca1fd314610875578063c71f4253146108aa578063c9d27afe146108e1578063ca6d56dc14610923578063f2fde38b1461095c575b7fa398b89ba344a0b23a0b9de53db298b2a1a868b396c1878b7e9dcbafecd49b133334604051808373ffffffffffffffffffffffffffffffffffffffff1673ffffffffffffffffffffffffffffffffffffffff1681526020018281526020019250505060405180910390a1005b34156101ab57600080fd5b6101c16004808035906020019091905050610995565b6040518080602001898152602001881515151581526020018715151515815260200186815260200185815260200184600019166000191681526020018315151515815260200182810382528a8181546001816001161561010002031660029004815260200191508054600181600116156101000203166002900480156102885780601f1061025d57610100808354040283529160200191610288565b820191906000526020600020905b81548152906001019060200180831161026b57829003601f168201915b5050995050505050505050505060405180910390f35b34156102a957600080fd5b6102d5600480803573ffffffffffffffffffffffffffffffffffffffff16906020019091905050610a12565b005b34156102e257600080fd5b6102f86004808035906020019091905050610c13565b604051808215151515815260200191505060405180910390f35b341561031d57600080fd5b610349600480803573ffffffffffffffffffffffffffffffffffffffff16906020019091905050610c62565b604051808215151515815260200191505060405180910390f35b341561036e57600080fd5b6103846004808035906020019091905050610d30565b6040518080602001828103825283818151815260200191508051906020019080838360005b838110156103c45780820151818401526020810190506103a9565b50505050905090810190601f1680156103f15780820380516001836020036101000a031916815260200191505b509250505060405180910390f35b341561040a57600080fd5b610463600480803590602001909190803590602001908201803590602001908080601f01602080910402602001604051908101604052809392919081815260200183838082843782019150505050505091905050610df8565b005b341561047057600080fd5b61049c600480803573ffffffffffffffffffffffffffffffffffffffff16906020019091905050610fad565b6040518082815260200191505060405180910390f35b34156104bd57600080fd5b6104c5610fc5565b6040518082815260200191505060405180910390f35b34156104e657600080fd5b61053f600480803590602001909190803590602001908201803590602001908080601f01602080910402602001604051908101604052809392919081815260200183838082843782019150505050505091905050610fcb565b604051808215151515815260200191505060405180910390f35b341561056457600080fd5b6105f7600480803590602001908201803590602001908080601f0160208091040260200160405190810160405280939291908181526020018383808284378201915050505050509190803590602001908201803590602001908080601f01602080910402602001604051908101604052809392919081815260200183838082843782019150505050505091905050611067565b6040518082815260200191505060405180910390f35b341561061857600080fd5b61062e60048080359060200190919050506112ab565b604051808273ffffffffffffffffffffffffffffffffffffffff1673ffffffffffffffffffffffffffffffffffffffff16815260200191505060405180910390f35b341561067b57600080fd5b6106836112ea565b6040518082815260200191505060405180910390f35b34156106a457600080fd5b6106ba60048080359060200190919050506112f0565b6040518082815260200191505060405180910390f35b34156106db57600080fd5b6106e361131a565b6040518082815260200191505060405180910390f35b341561070457600080fd5b61070c611320565b604051808273ffffffffffffffffffffffffffffffffffffffff1673ffffffffffffffffffffffffffffffffffffffff16815260200191505060405180910390f35b341561075957600080fd5b6107f0600480803573ffffffffffffffffffffffffffffffffffffffff1690602001909190803590602001909190803573ffffffffffffffffffffffffffffffffffffffff1690602001909190803590602001908201803590602001908080601f01602080910402602001604051908101604052809392919081815260200183838082843782019150505050505091905050611345565b005b34156107fd57600080fd5b610832600480803573ffffffffffffffffffffffffffffffffffffffff16906020019091908035906020019091905050611562565b604051808215151515815260200191505060405180910390f35b341561085757600080fd5b61085f6115d7565b6040518082815260200191505060405180910390f35b341561088057600080fd5b6108a860048080359060200190919080359060200190919080359060200190919050506115dd565b005b34156108b557600080fd5b6108cb600480803590602001909190505061169f565b6040518082815260200191505060405180910390f35b34156108ec57600080fd5b61090d600480803590602001909190803515159060200190919050506116c9565b6040518082815260200191505060405180910390f35b341561092e57600080fd5b61095a600480803573ffffffffffffffffffffffffffffffffffffffff169060200190919050506118bd565b005b341561096757600080fd5b610993600480803573ffffffffffffffffffffffffffffffffffffffff16906020019091905050611a92565b005b6004818154811015156109a457fe5b906000526020600020906009020160009150905080600001908060010154908060020160009054906101000a900460ff16908060020160019054906101000a900460ff16908060030154908060040154908060050154908060080160009054906101000a900460ff16905088565b60008060009054906101000a900473ffffffffffffffffffffffffffffffffffffffff1673ffffffffffffffffffffffffffffffffffffffff163373ffffffffffffffffffffffffffffffffffffffff16141515610a6f57600080fd5b6000600660008473ffffffffffffffffffffffffffffffffffffffff1673ffffffffffffffffffffffffffffffffffffffff1681526020019081526020016000205414151515610abe57600080fd5b600660008373ffffffffffffffffffffffffffffffffffffffff1673ffffffffffffffffffffffffffffffffffffffff1681526020019081526020016000205490505b600160078054905003811015610bb457600760018201815481101515610b2357fe5b906000526020600020900160009054906101000a900473ffffffffffffffffffffffffffffffffffffffff16600782815481101515610b5e57fe5b906000526020600020900160006101000a81548173ffffffffffffffffffffffffffffffffffffffff021916908373ffffffffffffffffffffffffffffffffffffffff1602179055508080600101915050610b01565b6007600160078054905003815481101515610bcb57fe5b906000526020600020900160006101000a81549073ffffffffffffffffffffffffffffffffffffffff02191690556007805480919060019003610c0e9190611b30565b505050565b600060048054905082101515610c2c5760009050610c5d565b600482815481101515610c3b57fe5b906000526020600020906009020160080160009054906101000a900460ff1690505b919050565b600080600660008473ffffffffffffffffffffffffffffffffffffffff1673ffffffffffffffffffffffffffffffffffffffff16815260200190815260200160002054905060078054905081101515610cbe5760009150610d2a565b8273ffffffffffffffffffffffffffffffffffffffff16600782815481101515610ce457fe5b906000526020600020900160009054906101000a900473ffffffffffffffffffffffffffffffffffffffff1673ffffffffffffffffffffffffffffffffffffffff161491505b50919050565b610d38611b5c565b600482815481101515610d4757fe5b90600052602060002090600902016000018054600181600116156101000203166002900480601f016020809104026020016040519081016040528092919081815260200182805460018160011615610100020316600290048015610dec5780601f10610dc157610100808354040283529160200191610dec565b820191906000526020600020905b815481529060010190602001808311610dcf57829003601f168201915b50505050509050919050565b6000600483815481101515610e0957fe5b90600052602060002090600902019050806001015442118015610e3b57508060020160009054906101000a900460ff16155b8015610eb45750816040518082805190602001908083835b602083101515610e785780518252602082019150602081019050602083039250610e53565b6001836020036101000a038019825116818451168082178552505050505050905001915050604051809103902060001916816005015460001916145b8015610ec65750600154816003015410155b1515610ed157600080fd5b60035481600401541315610f1e5760018160020160006101000a81548160ff02191690831515021790555060018160020160016101000a81548160ff021916908315150217905550610f3c565b60008160020160016101000a81548160ff0219169083151502179055505b7fd220b7272a8b6d0d7d6bcdace67b936a8f175e6d5c1b3ee438b72256b32ab3af83826004015483600301548460020160019054906101000a900460ff16604051808581526020018481526020018381526020018215151515815260200194505050505060405180910390a1505050565b60066020528060005260406000206000915090505481565b60055481565b600080600484815481101515610fdd57fe5b90600052602060002090600902019050826040518082805190602001908083835b6020831015156110235780518252602082019150602081019050602083039250610ffe565b6001836020036101000a0380198251168184511680821785525050505050509050019150506040518091039020600019168160050154600019161491505092915050565b6000806000809054906101000a900473ffffffffffffffffffffffffffffffffffffffff1673ffffffffffffffffffffffffffffffffffffffff163373ffffffffffffffffffffffffffffffffffffffff161415156110c557600080fd5b600480548091906001016110d99190611b70565b91506004828154811015156110ea57fe5b9060005260206000209060090201905083816000019080519060200190611112929190611ba2565b50826040518082805190602001908083835b6020831015156111495780518252602082019150602081019050602083039250611124565b6001836020036101000a0380198251168184511680821785525050505050509050019150506040518091039020816005018160001916905550603c600254024201816001018190555060008160020160006101000a81548160ff02191690831515021790555060008160020160016101000a81548160ff021916908315150217905550600081600301819055507ff970aa486598017b8116c2beb18c50d4584ecbc3c688817f59b26796725f31bf82856040518083815260200180602001828103825283818151815260200191508051906020019080838360005b8381101561123f578082015181840152602081019050611224565b50505050905090810190601f16801561126c5780820380516001836020036101000a031916815260200191505b50935050505060405180910390a16001820160058190555060018160080160006101000a81548160ff0219169083151502179055508191505092915050565b6007818154811015156112ba57fe5b90600052602060002090016000915054906101000a900473ffffffffffffffffffffffffffffffffffffffff1681565b60025481565b600060048281548110151561130157fe5b9060005260206000209060090201600401549050919050565b60015481565b6000809054906101000a900473ffffffffffffffffffffffffffffffffffffffff1681565b60008290508073ffffffffffffffffffffffffffffffffffffffff166323b872dd8630876000604051602001526040518463ffffffff167c0100000000000000000000000000000000000000000000000000000000028152600401808473ffffffffffffffffffffffffffffffffffffffff1673ffffffffffffffffffffffffffffffffffffffff1681526020018373ffffffffffffffffffffffffffffffffffffffff1673ffffffffffffffffffffffffffffffffffffffff1681526020018281526020019350505050602060405180830381600087803b151561142957600080fd5b6102c65a03f1151561143a57600080fd5b50505060405180519050151561144f57600080fd5b7f0eeb71b8926d7ed8f47a2cedf6b9b204e2001344c7fa20c696c9f06ea7c413c685858585604051808573ffffffffffffffffffffffffffffffffffffffff1673ffffffffffffffffffffffffffffffffffffffff1681526020018481526020018373ffffffffffffffffffffffffffffffffffffffff1673ffffffffffffffffffffffffffffffffffffffff16815260200180602001828103825283818151815260200191508051906020019080838360005b8381101561151e578082015181840152602081019050611503565b50505050905090810190601f16801561154b5780820380516001836020036101000a031916815260200191505b509550505050505060405180910390a15050505050565b600060048281548110151561157357fe5b906000526020600020906009020160070160008473ffffffffffffffffffffffffffffffffffffffff1673ffffffffffffffffffffffffffffffffffffffff16815260200190815260200160002060009054906101000a900460ff16905092915050565b60035481565b6000809054906101000a900473ffffffffffffffffffffffffffffffffffffffff1673ffffffffffffffffffffffffffffffffffffffff163373ffffffffffffffffffffffffffffffffffffffff1614151561163857600080fd5b8260018190555081600281905550806003819055507fa439d3fa452be5e0e1e24a8145e715f4fd8b9c08c96a42fd82a855a85e5d57de60015460025460035460405180848152602001838152602001828152602001935050505060405180910390a1505050565b60006004828154811015156116b057fe5b9060005260206000209060090201600301549050919050565b6000806000600660003373ffffffffffffffffffffffffffffffffffffffff1673ffffffffffffffffffffffffffffffffffffffff168152602001908152602001600020541415151561171b57600080fd5b60048481548110151561172a57fe5b906000526020600020906009020190508060070160003373ffffffffffffffffffffffffffffffffffffffff1673ffffffffffffffffffffffffffffffffffffffff16815260200190815260200160002060009054906101000a900460ff1615151561179557600080fd5b60018160070160003373ffffffffffffffffffffffffffffffffffffffff1673ffffffffffffffffffffffffffffffffffffffff16815260200190815260200160002060006101000a81548160ff02191690831515021790555080600301600081548092919060010191905055508215611822578060040160008154809291906001019190505550611838565b8060040160008154809291906001900391905055505b7f86abfce99b7dd908bec0169288797f85049ec73cbe046ed9de818fab3a497ae084843360405180848152602001831515151581526020018273ffffffffffffffffffffffffffffffffffffffff1673ffffffffffffffffffffffffffffffffffffffff168152602001935050505060405180910390a1806003015491505092915050565b60008060009054906101000a900473ffffffffffffffffffffffffffffffffffffffff1673ffffffffffffffffffffffffffffffffffffffff163373ffffffffffffffffffffffffffffffffffffffff1614151561191a57600080fd5b600660008373ffffffffffffffffffffffffffffffffffffffff1673ffffffffffffffffffffffffffffffffffffffff16815260200190815260200160002054905060008114156119c557600780549050600660008473ffffffffffffffffffffffffffffffffffffffff1673ffffffffffffffffffffffffffffffffffffffff16815260200190815260200160002081905550600780548091906001016119c29190611b30565b90505b816007828154811015156119d557fe5b906000526020600020900160006101000a81548173ffffffffffffffffffffffffffffffffffffffff021916908373ffffffffffffffffffffffffffffffffffffffff1602179055507f27b022af4a8347100c7a041ce5ccf8e14d644ff05de696315196faae8cd50c9b826001604051808373ffffffffffffffffffffffffffffffffffffffff1673ffffffffffffffffffffffffffffffffffffffff168152602001821515151581526020019250505060405180910390a15050565b6000809054906101000a900473ffffffffffffffffffffffffffffffffffffffff1673ffffffffffffffffffffffffffffffffffffffff163373ffffffffffffffffffffffffffffffffffffffff16141515611aed57600080fd5b806000806101000a81548173ffffffffffffffffffffffffffffffffffffffff021916908373ffffffffffffffffffffffffffffffffffffffff16021790555050565b815481835581811511611b5757818360005260206000209182019101611b569190611c22565b5b505050565b602060405190810160405280600081525090565b815481835581811511611b9d57600902816009028360005260206000209182019101611b9c9190611c47565b5b505050565b828054600181600116156101000203166002900490600052602060002090601f016020900481019282601f10611be357805160ff1916838001178555611c11565b82800160010185558215611c11579182015b82811115611c10578251825591602001919060010190611bf5565b5b509050611c1e9190611c22565b5090565b611c4491905b80821115611c40576000816000905550600101611c28565b5090565b90565b611cdf91905b80821115611cdb5760008082016000611c669190611ce2565b60018201600090556002820160006101000a81549060ff02191690556002820160016101000a81549060ff0219169055600382016000905560048201600090556005820160009055600682016000611cbe9190611d2a565b6008820160006101000a81549060ff021916905550600901611c4d565b5090565b90565b50805460018160011615610100020316600290046000825580601f10611d085750611d27565b601f016020900490600052602060002090810190611d269190611c22565b5b50565b5080546000825590600052602060002090810190611d489190611d4b565b50565b611da291905b80821115611d9e57600080820160006101000a81549060ff02191690556000820160016101000a81549073ffffffffffffffffffffffffffffffffffffffff021916905550600101611d51565b5090565b905600a165627a7a72305820a5c32756c854031d26030fc30dca09bb0a9e7a92e14a6dcde6c6da46e2c66ac20029",
  "source": "pragma solidity ^0.4.16;\n\ncontract owned {\n    address public owner;\n\n    function owned()  public {\n        owner = msg.sender;\n    }\n\n    modifier onlyOwner {\n        require(msg.sender == owner);\n        _;\n    }\n\n    function transferOwnership(address newOwner) onlyOwner  public {\n        owner = newOwner;\n    }\n}\n\ncontract tokenRecipient {\n    event receivedEther(address sender, uint amount);\n    event receivedTokens(address _from, uint256 _value, address _token, bytes _extraData);\n\n    function receiveApproval(address _from, uint256 _value, address _token, bytes _extraData) public {\n        Token t = Token(_token);\n        require(t.transferFrom(_from, this, _value));\n        receivedTokens(_from, _value, _token, _extraData);\n    }\n\n    function () payable  public {\n        receivedEther(msg.sender, msg.value);\n    }\n}\n\ninterface Token {\n    function transferFrom(address _from, address _to, uint256 _value) public returns (bool success);\n}\n\ncontract Congress is owned, tokenRecipient {\n    // Contract Variables and events\n    uint public minimumQuorum;\n    uint public debatingPeriodInMinutes;\n    int public majorityMargin;\n    Proposal[] public proposals;\n    uint public numProposals;\n    mapping (address => uint) public memberId;\n    address[] public members;\n\n    event ProposalAdded(uint proposalID, string description);\n    event Voted(uint proposalID, bool position, address voter);\n    event ProposalTallied(uint proposalID, int result, uint quorum, bool active);\n    event MembershipChanged(address member, bool isMember);\n    event ChangeOfRules(uint newMinimumQuorum, uint newDebatingPeriodInMinutes, int newMajorityMargin);\n\n    struct Proposal {\n        string description;\n        uint votingDeadline;\n        bool executed;\n        bool proposalPassed;\n        uint numberOfVotes; \n        int currentResult; //counts positive votes\n        bytes32 proposalHash;\n        Vote[] votes;\n        mapping (address => bool) voted;\n        bool isValid; //set to true when data is added\n    }\n\n    struct Vote {\n        bool inSupport;\n        address voter;\n    }\n\n    // Modifier that allows only shareholders to vote and create new proposals\n    modifier onlyMembers {\n        require(memberId[msg.sender] != 0);\n        _;\n    }\n\n    /**\n     * Constructor function\n     */\n    function Congress (uint minimumQuorumForProposals, uint minutesForDebate, int marginOfVotesForMajority)  payable public {\n        changeVotingRules(minimumQuorumForProposals, minutesForDebate, marginOfVotesForMajority);\n        // Its necessary to add an empty first member\n        addMember(0);\n        // and let's add the founder, to save a step later\n        addMember(owner);\n    }\n\n    /**\n     * Add member\n     *\n     * Make `targetMember` a member.\n     *\n     * @param targetMember ethereum address to be added\n     */\n    function addMember(address targetMember) onlyOwner public {\n        uint id = memberId[targetMember];\n\n        if (id == 0) {\n            memberId[targetMember] = members.length;\n            id = members.length++;\n        }\n\n        members[id] = targetMember;\n        MembershipChanged(targetMember, true);\n    }\n\n    /**\n     * Remove member\n     *\n     * @notice Remove membership from `targetMember`\n     *\n     * @param targetMember ethereum address to be removed\n     */\n    function removeMember(address targetMember) onlyOwner public {\n        require(memberId[targetMember] != 0);\n\n        for (uint i = memberId[targetMember]; i<members.length-1; i++) {\n            members[i] = members[i+1];\n        }\n        delete members[members.length-1];\n        members.length--;\n    }\n\n    /**\n     * Change voting rules\n     *\n     * Make so that proposals need tobe discussed for at least `minutesForDebate/60` hours,\n     * have at least `minimumQuorumForProposals` votes, and have 50% + `marginOfVotesForMajority` votes to be executed\n     *\n     * @param minimumQuorumForProposals how many members must vote on a proposal for it to be executed\n     * @param minutesForDebate the minimum amount of delay between when a proposal is made and when it can be executed\n     * @param marginOfVotesForMajority the proposal needs to have 50% plus this number\n     */\n    function changeVotingRules(uint minimumQuorumForProposals, uint minutesForDebate, int marginOfVotesForMajority) onlyOwner public {\n        minimumQuorum = minimumQuorumForProposals;\n        debatingPeriodInMinutes = minutesForDebate;\n        majorityMargin = marginOfVotesForMajority;\n\n        ChangeOfRules(minimumQuorum, debatingPeriodInMinutes, majorityMargin);\n    }\n\n    /**\n     * Add Proposal\n     *\n     * Propose to send `weiAmount / 1e18` ether to `beneficiary` for `jobDescription`. `transactionBytecode ? Contains : Does not contain` code.\n     *\n     * @param jobDescription Description of job\n     * @param transactionBytecode bytecode of transaction\n     */\n    function newProposal(\n        string jobDescription,\n        bytes transactionBytecode\n    )\n        onlyOwner public\n        returns (uint proposalID)\n    {\n        proposalID = proposals.length++;\n        Proposal storage p = proposals[proposalID];\n        p.description = jobDescription;\n        p.proposalHash = keccak256(transactionBytecode);\n        p.votingDeadline = now + debatingPeriodInMinutes * 1 minutes;\n        p.executed = false;\n        p.proposalPassed = false;\n        p.numberOfVotes = 0;\n        ProposalAdded(proposalID, jobDescription);\n        numProposals = proposalID+1;\n\n        p.isValid = true; //data has been added\n\n        return proposalID;\n    }\n    \n    /**\n     * Check if a proposal code matches\n     *\n     * @param proposalNumber ID number of the proposal to query\n     * @param transactionBytecode bytecode of transaction\n     */\n    function checkProposalCode(\n        uint proposalNumber,\n        bytes transactionBytecode\n    )\n        constant public\n        returns (bool codeChecksOut)\n    {\n        Proposal storage p = proposals[proposalNumber];\n        return p.proposalHash == keccak256(transactionBytecode);\n    }\n\n    /**\n     * Log a vote for a proposal\n     *\n     * Vote `supportsProposal? in support of : against` proposal #`proposalNumber`\n     *\n     * @param proposalNumber number of proposal\n     * @param supportsProposal either in favor or against it\n     */\n    function vote(\n        uint proposalNumber,\n        bool supportsProposal\n    )\n        onlyMembers public\n        returns (uint voteID)\n    {\n        Proposal storage p = proposals[proposalNumber];         // Get the proposal\n        require(!p.voted[msg.sender]);         // If has already voted, cancel\n        p.voted[msg.sender] = true;                     // Set this voter as having voted\n        p.numberOfVotes++;                              // Increase the number of votes\n        if (supportsProposal) {                         // If they support the proposal\n            p.currentResult++;                          // Increase score\n        } else {                                        // If they don't\n            p.currentResult--;                          // Decrease the score\n        }\n\n        // Create a log of this event\n        Voted(proposalNumber,  supportsProposal, msg.sender);\n        return p.numberOfVotes;\n    }\n\n    /**\n     * Finish vote\n     *\n     * Count the votes proposal #`proposalNumber` and execute it if approved\n     *\n     * @param proposalNumber proposal number\n     * @param transactionBytecode optional: if the transaction contained a bytecode, you need to send it\n     */\n    function executeProposal(uint proposalNumber, bytes transactionBytecode) public {\n        Proposal storage p = proposals[proposalNumber];\n\n        // If it is past the voting deadline and it has not already been executed\n        // and the supplied code matches the proposal and a minimum quorum has been reached...\n        require(now > p.votingDeadline && !p.executed && p.proposalHash == keccak256(transactionBytecode) && p.numberOfVotes >= minimumQuorum);                                  \n\n        // ...then execute result\n        if (p.currentResult > majorityMargin) {\n            // Proposal passed; execute the transaction\n\n            p.executed = true; // Avoid recursive calling\n            //require(p.recipient.call.value(p.amount)(transactionBytecode));\n\n            p.proposalPassed = true;\n        } else {\n            // Proposal failed\n            p.proposalPassed = false;\n        }\n\n        // Fire Events\n        ProposalTallied(proposalNumber, p.currentResult, p.numberOfVotes, p.proposalPassed);\n    }\n\n    /**\n     * Check wether or not a given address exists as a member of this contract.\n     * \n     * @param targetMember The address to be checked for member status.\n     * @return A boolean representing wether or not the given address is a member of this contract.\n     */\n    function memberExists(address targetMember) external view returns (bool) {\n        uint id = memberId[targetMember];\n\n        if (id >= members.length) {\n            return false;\n        }\n\n        return members[id] == targetMember;\n    }\n\n    /**\n     * Check wether or not a proposal corresponding to the given proposalID exists.\n     *\n     * @param proposalID The ID of the proposal to be checked.\n     * @return A boolean representing wether or not a proposal with the given ID was created.\n     */\n    function proposalExists(uint proposalID) external view returns (bool) {\n        if (proposalID >= proposals.length) {\n            return false;\n        }\n\n        return proposals[proposalID].isValid;\n    }\n\n    /**\n     * Check wether or not a member has successfully voted on a specific proposal.\n     *\n     * @dev This method really only exists for testing purposes. \n            Can probably be disabled for production.\n     *\n     * @param targetMember The address of the member to be checked.\n     * @param proposalID The ID of the proposal to be checked.\n     * @return A boolean representing wether or not the specified member has successfully voted.\n     */\n    function memberHasVoted(address targetMember, uint proposalID) external view returns (bool) {\n        return proposals[proposalID].voted[targetMember];\n    }\n\n    /**\n     * Return the description of a given proposal.\n     *\n     * @param proposalID The ID of the proposal.\n     * @return A string representing the description of the proposal.\n     */\n    function getProposalDescription(uint proposalID) public constant returns (string) {\n        return proposals[proposalID].description;\n    }\n    \n    /**\n     * Return the current result of a given proposal.\n     *\n     * @param proposalID The index where proposal is stored\n     * @return The current amount of positive votes of the proposal.\n     */\n    function getCurrentResults(uint proposalID) public constant returns (int) {\n        return proposals[proposalID].currentResult;\n    }\n    \n    /**\n     * Return the number of votes of a given proposal.\n     *\n     * @param proposalID The index where the proposal ist stored.\n     * @return The current amount of votes of the proposal.\n     */\n    function getNumberOfVotes(uint proposalID) public constant returns (uint) {\n        return proposals[proposalID].numberOfVotes;\n    }\n    /**\n     * Returns the address of this contract.\n     *\n     * @dev Disabled because it is not useful. The address of a contract is public\n            and therefore has an automatic getter method.\n     * @return An address representing this contract.\n     */\n    //function getContractAddress() external view returns (address) {\n    //    return this;\n    //}\n\n    /**\n     * Getter for the array which holds the addresses of the members of this contract.\n     * \n     * @dev Not really useful, because indexes are based on a mapping of the addresses \n            to unsigned integers, which could make accesing them outside of this contract\n            potentially harder. The function memberExists is way more useful.\n     * @return An array of addresses.\n     */\n    //function getMembers() external view returns (address[]) {\n    //    return members;\n    //}\n}",
  "sourcePath": "/Users/repenning/Documents/GitHub/BA-Projekt-17-DAO/contracts/Congress.sol",
  "compiler": {
    "name": "solc",
    "version": "0.4.19+commit.c4cbbb05.Emscripten.clang"
  },
  "schemaVersion": "2.0.0",
  "updatedAt": "2018-03-13T16:59:01.962Z"
}