{
  "contractName": "owned",
  "abi": [
    {
      "constant": true,
      "inputs": [],
      "name": "owner",
      "outputs": [
        {
          "name": "",
          "type": "address"
        }
      ],
      "payable": false,
      "stateMutability": "view",
      "type": "function"
    },
    {
      "constant": false,
      "inputs": [
        {
          "name": "newOwner",
          "type": "address"
        }
      ],
      "name": "transferOwnership",
      "outputs": [],
      "payable": false,
      "stateMutability": "nonpayable",
      "type": "function"
    },
    {
      "inputs": [],
      "payable": false,
      "stateMutability": "nonpayable",
      "type": "constructor"
    }
  ],
  "bytecode": "0x6060604052341561000f57600080fd5b336000806101000a81548173ffffffffffffffffffffffffffffffffffffffff021916908373ffffffffffffffffffffffffffffffffffffffff1602179055506101ce8061005e6000396000f30060606040526004361061004c576000357c0100000000000000000000000000000000000000000000000000000000900463ffffffff1680638da5cb5b14610051578063f2fde38b146100a6575b600080fd5b341561005c57600080fd5b6100646100df565b604051808273ffffffffffffffffffffffffffffffffffffffff1673ffffffffffffffffffffffffffffffffffffffff16815260200191505060405180910390f35b34156100b157600080fd5b6100dd600480803573ffffffffffffffffffffffffffffffffffffffff16906020019091905050610104565b005b6000809054906101000a900473ffffffffffffffffffffffffffffffffffffffff1681565b6000809054906101000a900473ffffffffffffffffffffffffffffffffffffffff1673ffffffffffffffffffffffffffffffffffffffff163373ffffffffffffffffffffffffffffffffffffffff1614151561015f57600080fd5b806000806101000a81548173ffffffffffffffffffffffffffffffffffffffff021916908373ffffffffffffffffffffffffffffffffffffffff160217905550505600a165627a7a723058208b83c7b91bc3f60a833c2aa488561ed6e8254e9a75a3c32cae8994358fe1034c0029",
  "source": "pragma solidity ^0.4.16;\r\n\r\ncontract owned {\r\n    address public owner;\r\n\r\n    function owned()  public {\r\n        owner = msg.sender;\r\n    }\r\n\r\n    modifier onlyOwner {\r\n        require(msg.sender == owner);\r\n        _;\r\n    }\r\n\r\n    function transferOwnership(address newOwner) onlyOwner  public {\r\n        owner = newOwner;\r\n    }\r\n}\r\n\r\ncontract tokenRecipient {\r\n    event receivedEther(address sender, uint amount);\r\n    event receivedTokens(address _from, uint256 _value, address _token, bytes _extraData);\r\n\r\n    function receiveApproval(address _from, uint256 _value, address _token, bytes _extraData) public {\r\n        Token t = Token(_token);\r\n        require(t.transferFrom(_from, this, _value));\r\n        receivedTokens(_from, _value, _token, _extraData);\r\n    }\r\n\r\n    function () payable  public {\r\n        receivedEther(msg.sender, msg.value);\r\n    }\r\n}\r\n\r\ninterface Token {\r\n    function transferFrom(address _from, address _to, uint256 _value) public returns (bool success);\r\n}\r\n\r\ncontract Congress is owned, tokenRecipient {\r\n    // Contract Variables and events\r\n    uint public minimumQuorum;\r\n    uint public debatingPeriodInMinutes;\r\n    int public majorityMargin;\r\n    Proposal[] public proposals;\r\n    uint public numProposals;\r\n    mapping (address => uint) public memberId;\r\n    address[] public members;\r\n\r\n    event ProposalAdded(uint proposalID, string description);\r\n    event Voted(uint proposalID, bool position, address voter);\r\n    event ProposalTallied(uint proposalID, int result, uint quorum, bool active);\r\n    event MembershipChanged(address member, bool isMember);\r\n    event ChangeOfRules(uint newMinimumQuorum, uint newDebatingPeriodInMinutes, int newMajorityMargin);\r\n\r\n    struct Proposal {\r\n        string description;\r\n        uint votingDeadline;\r\n        bool executed;\r\n        bool proposalPassed;\r\n        uint numberOfVotes;\r\n        int currentResult;\r\n        bytes32 proposalHash;\r\n        Vote[] votes;\r\n        mapping (address => bool) voted;\r\n    }\r\n\r\n    struct Vote {\r\n        bool inSupport;\r\n        address voter;\r\n    }\r\n\r\n    // Modifier that allows only shareholders to vote and create new proposals\r\n    modifier onlyMembers {\r\n        require(memberId[msg.sender] != 0);\r\n        _;\r\n    }\r\n\r\n    /**\r\n     * Constructor function\r\n     */\r\n    function Congress (uint minimumQuorumForProposals, uint minutesForDebate, int marginOfVotesForMajority)  payable public {\r\n        changeVotingRules(minimumQuorumForProposals, minutesForDebate, marginOfVotesForMajority);\r\n        // It’s necessary to add an empty first member\r\n        addMember(0);\r\n        // and let's add the founder, to save a step later\r\n        addMember(owner);\r\n    }\r\n\r\n    /**\r\n     * Add member\r\n     *\r\n     * Make `targetMember` a member.\r\n     *\r\n     * @param targetMember ethereum address to be added\r\n     */\r\n    function addMember(address targetMember) public { //deleted onlyOwner modifier for testing purposes\r\n        uint id = memberId[targetMember];\r\n        if (id == 0) {\r\n            memberId[targetMember] = members.length;\r\n            id = members.length++;\r\n        }\r\n\r\n        members[id] = targetMember;\r\n        MembershipChanged(targetMember, true);\r\n    }\r\n\r\n    /**\r\n     * Remove member\r\n     *\r\n     * @notice Remove membership from `targetMember`\r\n     *\r\n     * @param targetMember ethereum address to be removed\r\n     */\r\n    function removeMember(address targetMember) onlyOwner public {\r\n        require(memberId[targetMember] != 0);\r\n\r\n        for (uint i = memberId[targetMember]; i<members.length-1; i++) {\r\n            members[i] = members[i+1];\r\n        }\r\n        delete members[members.length-1];\r\n        members.length--;\r\n    }\r\n\r\n    /**\r\n     * Change voting rules\r\n     *\r\n     * Make so that proposals need tobe discussed for at least `minutesForDebate/60` hours,\r\n     * have at least `minimumQuorumForProposals` votes, and have 50% + `marginOfVotesForMajority` votes to be executed\r\n     *\r\n     * @param minimumQuorumForProposals how many members must vote on a proposal for it to be executed\r\n     * @param minutesForDebate the minimum amount of delay between when a proposal is made and when it can be executed\r\n     * @param marginOfVotesForMajority the proposal needs to have 50% plus this number\r\n     */\r\n    function changeVotingRules(uint minimumQuorumForProposals, uint minutesForDebate, int marginOfVotesForMajority) onlyOwner public {\r\n        minimumQuorum = minimumQuorumForProposals;\r\n        debatingPeriodInMinutes = minutesForDebate;\r\n        majorityMargin = marginOfVotesForMajority;\r\n\r\n        ChangeOfRules(minimumQuorum, debatingPeriodInMinutes, majorityMargin);\r\n    }\r\n\r\n    /**\r\n     * Add Proposal\r\n     *\r\n     * Propose to send `weiAmount / 1e18` ether to `beneficiary` for `jobDescription`. `transactionBytecode ? Contains : Does not contain` code.\r\n     *\r\n     * @param jobDescription Description of job\r\n     * @param transactionBytecode bytecode of transaction\r\n     */\r\n    function newProposal(\r\n        string jobDescription,\r\n        bytes transactionBytecode\r\n    )\r\n        onlyOwner public\r\n        returns (uint proposalID)\r\n    {\r\n        proposalID = proposals.length++;\r\n        Proposal storage p = proposals[proposalID];\r\n        p.description = jobDescription;\r\n        p.proposalHash = keccak256(transactionBytecode);\r\n        p.votingDeadline = now + debatingPeriodInMinutes * 1 minutes;\r\n        p.executed = false;\r\n        p.proposalPassed = false;\r\n        p.numberOfVotes = 0;\r\n        ProposalAdded(proposalID, jobDescription);\r\n        numProposals = proposalID+1;\r\n\r\n        return proposalID;\r\n    }\r\n\r\n    /**\r\n     * Check if a proposal code matches\r\n     *\r\n     * @param proposalNumber ID number of the proposal to query\r\n     * @param transactionBytecode bytecode of transaction\r\n     */\r\n    function checkProposalCode(\r\n        uint proposalNumber,\r\n        bytes transactionBytecode\r\n    )\r\n        constant public\r\n        returns (bool codeChecksOut)\r\n    {\r\n        Proposal storage p = proposals[proposalNumber];\r\n        return p.proposalHash == keccak256(transactionBytecode);\r\n    }\r\n\r\n    /**\r\n     * Log a vote for a proposal\r\n     *\r\n     * Vote `supportsProposal? in support of : against` proposal #`proposalNumber`\r\n     *\r\n     * @param proposalNumber number of proposal\r\n     * @param supportsProposal either in favor or against it\r\n     */\r\n    function vote(\r\n        uint proposalNumber,\r\n        bool supportsProposal\r\n    )\r\n        onlyMembers public\r\n        returns (uint voteID)\r\n    {\r\n        Proposal storage p = proposals[proposalNumber];         // Get the proposal\r\n        require(!p.voted[msg.sender]);         // If has already voted, cancel\r\n        p.voted[msg.sender] = true;                     // Set this voter as having voted\r\n        p.numberOfVotes++;                              // Increase the number of votes\r\n        if (supportsProposal) {                         // If they support the proposal\r\n            p.currentResult++;                          // Increase score\r\n        } else {                                        // If they don't\r\n            p.currentResult--;                          // Decrease the score\r\n        }\r\n\r\n        // Create a log of this event\r\n        Voted(proposalNumber,  supportsProposal, msg.sender);\r\n        return p.numberOfVotes;\r\n    }\r\n\r\n    /**\r\n     * Finish vote\r\n     *\r\n     * Count the votes proposal #`proposalNumber` and execute it if approved\r\n     *\r\n     * @param proposalNumber proposal number\r\n     * @param transactionBytecode optional: if the transaction contained a bytecode, you need to send it\r\n     */\r\n    function executeProposal(uint proposalNumber, bytes transactionBytecode) public {\r\n        Proposal storage p = proposals[proposalNumber];\r\n\r\n        // If it is past the voting deadline and it has not already been executed\r\n        // and the supplied code matches the proposal and a minimum quorum has been reached...\r\n        require(now > p.votingDeadline && !p.executed && p.proposalHash == keccak256(transactionBytecode) && p.numberOfVotes >= minimumQuorum);                                  \r\n\r\n        // ...then execute result\r\n        if (p.currentResult > majorityMargin) {\r\n            // Proposal passed; execute the transaction\r\n\r\n            p.executed = true; // Avoid recursive calling\r\n            //require(p.recipient.call.value(p.amount)(transactionBytecode));\r\n\r\n            p.proposalPassed = true;\r\n        } else {\r\n            // Proposal failed\r\n            p.proposalPassed = false;\r\n        }\r\n\r\n        // Fire Events\r\n        ProposalTallied(proposalNumber, p.currentResult, p.numberOfVotes, p.proposalPassed);\r\n    }\r\n    \r\n    function getContractAddress() external view returns (address) {\r\n        return this;\r\n    }\r\n    \r\n    function getMembers() external view returns (address[]) {\r\n        return members;\r\n    }\r\n\r\n    function memberExists(address targetMember) external view returns (bool) {\r\n        uint id = memberId[targetMember];\r\n\r\n        return members[id] == targetMember;\r\n    }\r\n}\r\n",
  "sourcePath": "C:\\Users\\marce\\Documents\\GitHub\\BA-WI-Projekt-DAO\\BA-Projekt-17-DAO\\contracts\\Congress.sol",
  "compiler": {
    "name": "solc",
    "version": "0.4.18+commit.9cf6e910.Emscripten.clang"
  },
  "schemaVersion": "1.0.1",
  "updatedAt": "2018-01-06T18:27:41.627Z"
}